:020000040800F2
:1000000000500020E9160008391600083D160008C7
:1000100041160008451600084916000800000000B7
:100020000000000000000000000000004D16000865
:100030005116000800000000551600085916000867
:100040003117000831170008311700083117000870
:100050003117000831170008311700083117000860
:100060003117000831170008311700083117000850
:100070003117000831170008311700083117000840
:1000800031170008311700083117000869160008F9
:1000900075160008311700083117000831170008DD
:1000A0003117000831170008311700083117000810
:1000B0003117000831170008311700083117000800
:1000C00031170008311700083117000831170008F0
:1000D00031170008311700083117000831170008E0
:1000E0003117000831170008311700080000000020
:1000F0000000000000000000000000000000000000
:0C01000000000000000000005FF808F1A3
:10010C0010B5054C237833B9044B13B10448AFF345
:10011C0000800123237010BD0C00002000000000A3
:10012C007C1700080C4B43B10C4810B50C49AFF3CD
:10013C0000800C48036823B910BD0A48036833B922
:10014C007047094B002BF7D0BDE810401847064B01
:10015C00002BF5D0184700BF000000007C170008EA
:10016C00100000200C000020000000004FF47A73F7
:10017C0070B50D4D0D4A29781268B3FBF1F30646A4
:10018C00B2FBF3F000F062FC08B90F2E01D901208C
:10019C0070BD0446024631464FF0FF3000F014FCAF
:1001AC006E60204670BD00BF0000002008000020DB
:1001BC00074A08B51368032043F01003136000F0DE
:1001CC00F1FB0020FFF7D2FF01F0E8F9002008BD99
:1001DC0000200240034A044B11681B780B44136047
:1001EC00704700BF6800002000000020014B186819
:1001FC00704700BF6800002038B50446FFF7F6FFD3
:10020C00631C054602D0044B1B781C44FFF7EEFF21
:10021C00401B8442FAD838BD000000200122F0B502
:10022C004C69036802FA04F0C643D3F800224D6A05
:10023C0022F47C5242EA052242F00102C3F8002269
:10024C00D3F81C52CA693540C3F81C52002A3DD160
:10025C00CA688D88D3F80C72D1F808E045EA0245DB
:10026C000A8803EBC404374042EA0E42C3F80C720E
:10027C00C4F84052C4F844228A690ABBD3F8042259
:10028C003240C3F804220A69A2B9D3F814223240CE
:10029C00C3F814220A6A012A04D1D3F81C22104391
:1002AC00C3F81C02D3F80022002022F00102C3F88C
:1002BC000022F0BDD3F814220243C3F81422E9E75C
:1002CC00D3F804220243C3F80422DCE7012AD3D179
:1002DC00D3F80C228D8840EA020E0A688F6845EA32
:1002EC0002458A8903EBC40442EA0742C3F80CE2D4
:1002FC00C4F84052C4F84422BEE700BF002800F006
:10030C009180F8B590F83C30054603F0FF02002BC5
:10031C007CD002222B6885F83C201A6822F002025D
:10032C001A601A6842F001021A60FFF75FFF064676
:10033C0004E0FFF75BFF801B0A285CD82A6854682E
:10034C0014F00104F5D05368D9075AD5AB69E969A3
:10035C00012B0CBF802300230129296A0CBF43F019
:10036C00400323F040030129696A0CBF43F02003CA
:10037C0023F020030129A96A0CBF43F0100323F0DA
:10038C0010030129E96AE8680CBF43F0080323F065
:10039C0008030129A9682F696E696C6841EA00019C
:1003AC00106841EA07010CBF43F0040323F0040377
:1003BC00013C20F0FC003143214303431360D16125
:1003CC00136823F001031360FFF710FF044604E0E9
:1003DC00FFF70CFF001B0A281DD82B685A68D207A0
:1003EC00F6D45B6813F001030BD101222B64184681
:1003FC0085F83C20F8BD032085F83D4085F83C008D
:10040C00F8BD0423012085F83C30F8BD80F83D2070
:10041C0000F046FF7DE70320002385F83C0085F8BB
:10042C003D30F8BD012070470268034691684801D1
:10043C0002D4916809015BD593F83D10012955D080
:10044C0001209168F0B4490183F83D0063D49168B0
:10045C0011F0006F14BF04460224240111191D6B06
:10046C00D1F88061A86806F00106C1F88061002807
:10047C0046D12F68E868D1F8806140EA4750304394
:10048C00C1F88001D1F88461286926F00F0600F0CC
:10049C000F002861C1F88461D1F8846114443043A1
:1004AC00C1F884016869C4F88801A869C4F88C0192
:1004BC0093F83C00C0B2322833D0622835D02228C1
:1004CC002BD0122083F83C0000201864D1F8804116
:1004DC0083F83D0044F00104C1F880415369F0BC3D
:1004EC0043F40F4343F001035361704702207047FC
:1004FC009168C800A0D40422012083F83C207047E6
:10050C00EF686E683843D1F8807140EAC600384312
:10051C00C1F88001B6E700249FE7422083F83C0035
:10052C00D2E7522083F83C00CEE7722083F83C00DF
:10053C00CAE700BF10B40346A1BB90F83C20222AA6
:10054C0036D090F83C20422A32D090F83C20622AD7
:10055C002ED090F83C20722A2AD090F83D20012A07
:10056C0026D0012193F83C2083F83D10D2B2322AD8
:10057C0067D0522A61D0122A5BD0222283F83C2009
:10058C00002419681C644A69204642F40F4242F068
:10059C0001024A614A6983F83D4042F00A024A610D
:1005AC0010BC7047012906D093F83D20012A13D1C5
:1005BC00022010BC704790F83C20322AF8D090F8FA
:1005CC003C20522AF4D090F83C20622AF0D090F8CB
:1005DC003C20722AE8D1EBE7012193F83C2083F808
:1005EC003D10D2B2222A20D0422A1AD0122A14D07C
:1005FC00322283F83C20002419681C644A69204686
:10060C0042F40F4242F001024A614A6983F83D40CC
:10061C0042F050024A6110BC7047522283F83C20D1
:10062C00E9E7722283F83C20E5E7622283F83C205C
:10063C00E1E7422283F83C20A2E7722283F83C20B7
:10064C009EE7622283F83C209AE700BF704700BF08
:10065C00704700BFF8B5426B836B0468002908BF74
:10066C0013460A01A518D5F8B06106F004069E6081
:10067C00002E50D1D5F8B061760D1E602244D5F80D
:10068C00B071D5F8B4C1D5F8B461D2F8B85107F04F
:10069C00020E1D75D2F8B8710CF00F053F0A5F758C
:1006AC00D2F8B871C6F307263F0C9F75D2F8B87113
:1006BC00C3F80CE03F0EDF75D2F8BC711D611F76DC
:1006CC00D2F8BC51DE612D0A5D76D2F8BC511962AC
:1006DC002D0C9D76D2F8BC21120EDA762023F9B9B6
:1006EC00E360636923F00A03636190F83C3003F024
:1006FC00EF03222B1FD090F83C30DBB2622B38D0AA
:10070C00722B3DD0422B26D0012380F83C30FFF7D2
:10071C009FFF0020F8BDD5F8B061F6085E60ADE72C
:10072C002361636923F05003636190F83C3003F05C
:10073C00EF03222B06D10268536923F40F43536154
:10074C000029D8D090F83C30DBB2622B0AD0722B47
:10075C001DD0522BD8D1122380F83C30FFF778FFF4
:10076C000020F8BD222380F83C30FFF771FF0020F9
:10077C00F8BD322380F83C30FFF76AFF0020F8BD4B
:10078C00522380F83C30FFF763FF0020F8BD422372
:10079C0080F83C30FFF75CFF0020F8BD704700BFCD
:1007AC00036870B5DA68054612F010025C6902D075
:1007BC0014F0080278D114461A695969D00601D58B
:1007CC0049066CD45A69D2070BD59968714A986856
:1007DC008A439E687BD0704A824378D06F4AB2437A
:1007EC0075D0DA685969900702D0890700F19880B2
:1007FC001A695969920702D0CE0600F197802A6CCB
:10080C0022432A649A695969D407586901D5CA05E3
:10081C0056D49A6959699407586901D5890548D401
:10082C009A6959695607586901D54C0530D49A69AB
:10083C00596912F0700F586901D0090510D42A6C4F
:10084C006AB101220421596085F83C205A69284676
:10085C0022F40F4222F05B025A61FFF79FFF70BD3A
:10086C000204ECD59A6902F07002302A00F08880FC
:10087C0078D9502A71D0602A7DD0402A03D12A6CB5
:10088C0042F040022A649A6922F070029A61D6E71B
:10089C000004CCD52A6C42F004022A64C7E710226B
:1008AC0044F480641A618DE710224FF40074DA600E
:1008BC0082E70204B4D52A6C42F002022A64AFE744
:1008CC000604A6D52A6C42F001022A64A1E79A68B4
:1008DC0099689607986806D48A0504D4C60702D48A
:1008EC0044F4006417E05A6922F001025A6195F849
:1008FC003C20122A20D095F83C30DBB2522B20D071
:10090C00722B26D0422B20D0012385F83C30284670
:10091C00FFF79CFE2B689968214A0A439A6060E7AE
:10092C0000212846FFF796FE2B6861E70121284637
:10093C00FFF790FE2B6862E75A6922F40F425A6166
:10094C00D9E7322385F83C30E1E7222385F83C30A7
:10095C00DDE7622385F83C30D9E72A6C42F080024F
:10096C002A6490E7102A10D0202A8CD12A6C42F0ED
:10097C0010022A6487E72A6C42F480722A6482E7A8
:10098C002A6C42F020022A647DE72A6C42F00802AD
:10099C002A6478E70100000400010008000001103F
:1009AC00090501004FF6FF01064A0002D36800F466
:1009BC00E0600B4043F0BF6343F400330343D36068
:1009CC00704700BF00ED00E0184B70B4DC68C4F356
:1009DC000224C4F10706042E04F1040328BF0426E4
:1009EC00062B17D90125033CA540013D2A400123C4
:1009FC00B340013B1940A140002841EA02010CDB45
:100A0C00090100F16040C9B200F5614080F80013A3
:100A1C0070BC704700221446E9E7054B00F00F004C
:100A2C000901C9B20344197670BC704700ED00E0AF
:100A3C00FCEC00E0012300F01F01034A40098B404D
:100A4C0042F82030704700BF00E100E00138B0F1FF
:100A5C00807F0DD230B4F02500220721054B064CC7
:100A6C00586084F82350104630BC9A601960704767
:100A7C000120704710E000E000ED00E0044A04287B
:100A8C0013680CBF43F0040323F004031360704796
:100A9C0010E000E0704700BF08B5FFF7FBFF08BD92
:100AAC002DE9F04F4FF0000885B043466FF01F065C
:100ABC00DFF8E0E1DFF8E0C1704F009005E00133B2
:100ACC00102B06F1040600F08B8001220C689A4072
:100ADC001440A242F3D14D68122D00F0A58000F213
:100AEC008E80022D00F0A78040F28380032D00F051
:100AFC009F80112D02D1CA6802F10408FF2C72D814
:100B0C00009A4FEA830A914612680F2505FA0AFBF0
:100B1C0022EA0B0208FA0AFA42EA0A02C9F8002091
:100B2C00D1F804A01AF0805FC9D0DEF8189023F039
:100B3C00030249F00109CEF81890DEF8189002F182
:100B4C00804209F00109CDF80C9002F5803203F0D7
:100B5C000309DDF80CB04FEA8909D2F808B005FAA0
:100B6C0009F52BEA050001900098604579D0444DB9
:100B7C00A84279D0434D0098A8427AD0424D0098B3
:100B8C00A8420CBF4FF0030B4FF0040B0BFA09F902
:100B9C0001981AF4803F40EA090595603A6803F120
:100BAC00010314BF2243A2433A607A681AF4003F4F
:100BBC0014BF2243A2437A60BA681AF4801F14BF90
:100BCC002243A243BA60FA681AF4001F14BF1443FC
:100BDC0022EA0404102BFC6006F104067FF475AFC6
:100BEC0005B0BDE8F08F0098B246426800F10409E8
:100BFC008BE7A5B1012D81D1D1F80C807EE723487C
:100C0C0085420CD01BD92248854208D000F5803093
:100C1C00854204D0DFF884904D457FF46FAF8D682A
:100C2C00BDB94FF0040869E7CA6802F10C0865E722
:100C3C004FF0000862E7CA6802F108085EE7DFF8C7
:100C4C0060904D45EBD009F580394D457FF456AF9A
:100C5C00E5E70098012D0CBF026142614FF00808D6
:100C6C004CE74FF0000993E74FF0010B0BFA09F931
:100C7C008EE74FF0020B0BFA09F989E700040140EB
:100C8C00000C014000100140001401400000211034
:100C9C00000031100010024000080140000022103A
:100CAC000000111002B9090401617047C368594072
:100CBC00C16070472DE9F041036882B0DD0704463E
:100CCC0030D5AD494A6802F00C02042A00F0FA80D3
:100CDC004A6802F00C02082A00F0F0806368B3F551
:100CEC00803F00F07481002B00F00481B3F5A02F3D
:100CFC0000F0A981A04B1A6822F480321A601A689D
:100D0C0022F480221A60FFF771FA9B4D064605E02B
:100D1C00FFF76CFA801B642800F217812B689A038A
:100D2C00F6D523689F0728D5934A516811F00C0F0C
:100D3C0000F0A980516801F00C01082900F09F8097
:100D4C002369002B00F0328101228C4B8A4D1A60F2
:100D5C00FFF74CFA064605E0FFF748FA801B02281D
:100D6C0000F2F3802B689807F6D52B68626923F0A4
:100D7C00F80343EAC2032B6023681A075DD45D07AE
:100D8C003AD57D4BDA69D00000F1A6800125DA69ED
:100D9C0042F08052DA61DB6903F080530093009BD0
:100DAC00774B1A68D10540F1BF80E368012B00F046
:100DBC001481002B00F0CD80052B6F4B1A6A00F0CC
:100DCC004F8122F001021A621A6A22F004021A629E
:100DDC00FFF70CFA684E804641F2883706E0FFF7C1
:100DEC0005FAA0EB0800B84200F2AF80336A9B070B
:100DFC00F5D5002D40F0F780E369D3B15E4D6A68FC
:100E0C0002F00C02082A45D0022B4FF000025D4B79
:100E1C0000F0EF801A60FFF7E9F92C46054605E073
:100E2C00FFF7E4F9401B022800F28F8023689B0136
:100E3C00F6D4002002B0BDE8F081A369002B2DD0C0
:100E4C000122514B4C4D1A60FFF7D0F9064604E0D5
:100E5C00FFF7CCF9801B022877D86B6A9B07F7D574
:100E6C004A4B4B4A1B68A2FB03235B0A019300BF4E
:100E7C00019B5A1E0192002BF9D123687FE752681F
:100E8C00D6033FF55DAF3C4A1268950726D522691B
:100E9C00012A23D0012002B0BDE8F0813A4A364D38
:100EAC001360FFF7A3F9064604E0FFF79FF9801BD8
:100EBC0002284AD86B6A9F07F7D4DEE74A68D0034A
:100ECC007FF50CAF2C4A126891037FF52BAF62684B
:100EDC00002A7FF427AFDDE7002561E7264960692A
:100EEC000A6822F0F80242EAC0020A601A077FF58B
:100EFC0046AFA2E703F1804303F504331A681D469D
:100F0C0022F480321A601A6822F480221A60FFF7E9
:100F1C006DF9064604E0FFF769F9801B642814D8C4
:100F2C002B689B03F7D4FCE61A681E4642F48072C9
:100F3C001A60FFF75BF907463368DA053FF535AF02
:100F4C00FFF754F9C01B6428F6D9032002B0BDE8A2
:100F5C00F08103F1804303F504331A6A1E4622F034
:100F6C0001021A621A6A41F2883822F004021A62EB
:100F7C00FFF73CF9074612E0001002400000424225
:100F8C000070004060004242800442420800002091
:100F9C00D34D6210FFF72AF9C01B4045D5D8336AF0
:100FAC009807F7D4002D3FF427AF1CE0344A354D99
:100FBC001360FFF71BF9064604E0FFF717F9801BD7
:100FCC000228C2D82B689907F7D42368D5E62D4A96
:100FDC00136843F48033136095E62A4A136A43F08E
:100FEC0001031362F4E6274AD36923F08053D361DB
:100FFC0002E71A60FFF7FAF8064604E0FFF7F6F886
:10100C00801B0228A1D82B689901F7D4226AB2F56B
:10101C00803F2DD001251B4B606A5968024321F497
:10102C00741119480A435A6005601C46FFF7DEF834
:10103C00054604E0FFF7DAF8401B022885D8236840
:10104C009A01F7D5F5E603F18043A3F53C331A6812
:10105C0042F480221A601A6842F480321A6052E616
:10106C0042F004021A621A6A42F001021A62AFE6F6
:10107C006B68A16823F400330B436B60CAE700BFB5
:10108C0000004242001002406000424270B501264E
:10109C00022586B0154B0DF1180E0FCB0EE90F0083
:1010AC00134C8DF804608DF80550636803F00C0246
:1010BC00082A0BD1C3F383427244DB0312F8102CC1
:1010CC0007D40C4800FB02F006B070BD0A4806B00D
:1010DC0070BD63680848C3F3404300FB02F07344DF
:1010EC0013F8143CB0FBF3F006B070BD9417000875
:1010FC000010024000093D0000127A004E4A1368AD
:10110C0003F007038B420BD2136823F007030B4346
:10111C001360136803F00703994201D00120704754
:10112C0003682DE9F0419A0706D5444C856862683E
:10113C0022F0F0022A436260DF0706460C4622D5F5
:10114C0042683E4B012A1B6872D0022A6AD099076A
:10115C0029D53A4D41F288386B6823F003031343C9
:10116C006B60FFF743F873680746012B49D0022BDD
:10117C0005D151E0FFF73AF8C01B404555D86B68D4
:10118C0013F00C0FF6D12C4A136803F007039C42A2
:10119C000CD2136823F0070323431360136803F086
:1011AC0007039C4202D00120BDE8F08133685A0746
:1011BC0006D52249F0684A6822F4E06202434A608C
:1011CC001B0707D51D4A3169536823F4605343EA62
:1011DC00C1035360FFF75AFF184B19495B68194A52
:1011EC00C3F30313CB5C20FA03F300201360FEF768
:1011FC00BDFF0020BDE8F081FEF7F8FFC01B4045A5
:10120C0013D86B6803F00C03042BF5D1BBE7FEF786
:10121C00EDFFC01B404508D86B6803F00C03082B8E
:10122C00F5D1B0E7980194D4BDE70320BDE8F08177
:10123C009D038ED4B7E700BF00200240001002408F
:10124C00AC17000808000020014B1868704700BF5D
:10125C000800002070B5002209264FF4A0240121BB
:10126C000C4B0D4D184683E860001C61D9619A60E7
:10127C00DA605A619A611A625A629A62DA62FFF70C
:10128C003DF800B970BD4921BDE87040034800F03D
:10129C0083B900BF7400002000640040C41700082C
:1012AC0002681C4B9A4200D0704730B500244FF4B2
:1012BC00006503F5D633DA6987B042F00072DA6163
:1012CC00DB6902A903F0007301931348019B02959B
:1012DC00039404944FF48055FFF7E2FB032302229E
:1012EC0002A90D48059303920295FFF7D9FB2246FC
:1012FC0021461320FFF768FB1320FFF79BFB2246C8
:10130C0021461420FFF760FB1420FFF793FB07B076
:10131C0030BD00BF006400400008014010B5002340
:10132C0001220E248AB0694609480593069300935E
:10133C000193029303930493079208920994FEF786
:10134C006DFF18B1A021034800F026F90AB010BDBA
:10135C0074000020C4170008002340F221300F4A0B
:10136C0070B41946536093601361D361106002F13D
:10137C00140302F11C0003F8011B8342FBD14FF450
:10138C00407601250824064B064856629562546344
:10139C001163D1625A63186370BC70472800002037
:1013AC00740000204C00002008B500210548FFF710
:1013BC00C1F800B908BDBD21BDE80840024800F0E5
:1013CC00EBB800BF74000020C4170008274B70B5A1
:1013DC001D6B2E6929604EB1002213465C1C815C8A
:1013EC00EA18E3B2B34211751A46F7D31F48FFF758
:1013FC001BF800B970BD00224FF480411C48FFF768
:10140C0051FC4FF49670FEF7F7FE01224FF4005199
:10141C001748FFF747FC4FF49670FEF7EDFE0022DD
:10142C004FF400511248FFF73DFC4FF49670FEF755
:10143C00E3FE01224FF400510D48FFF733FC4FF44B
:10144C009670FEF7D9FE00224FF400510848FFF7C2
:10145C0029FC4FF49670FEF7CFFEBDE870400122D8
:10146C004FF480410248FFF71DBC00BF7400002000
:10147C0000100140184B30B59A6989B042F0100247
:10148C009A619969154D01F01001019101999C69BE
:10149C00284644F020049C619C69002204F020043E
:1014AC000294029C9C694FF4005144F004049C612A
:1014BC009B694FF4005403F004030393039BFFF761
:1014CC00F1FB01220223284604A9049405920793F8
:1014DC00FFF7E6FA09B030BD0010024000100140E1
:1014EC0030B501224FF48033002502244FF4E01173
:1014FC0091B006A806920A9207930E9308950D9444
:10150C000F91FFF7D7FB00B1FEE703464FF4806263
:10151C000F25214601A8029403930593019504928B
:10152C00FFF7ECFD044600B1FEE7FFF78DFE084B1C
:10153C00A3FB00308009FFF789FA0420FFF79EFA1D
:10154C00224621464FF0FF30FFF73EFA11B030BD76
:10155C00D34D621000B583B06C46FEF729FEFFF741
:10156C00BFFFFFF787FFFFF775FEFFF7D7FEFFF70B
:10157C00F3FEFFF719FF074B93E803008DE8030018
:10158C0020464FF48071FFF721FF4FF47A70FEF77D
:10159C0033FEF5E7A4170008FEE700BF214B00B5AA
:1015AC009A6983B042F001029A619B69032003F0AF
:1015BC0001030193019BFFF7F5F900226FF00B007B
:1015CC001146FFF701FA00226FF00A001146FFF7EF
:1015DC00FBF900226FF009001146FFF7F5F9002224
:1015EC006FF004001146FFF7EFF900226FF00300D3
:1015FC001146FFF7E9F900226FF001001146FFF7E1
:10160C00E3F900224FF0FF301146FFF7DDF9064AEF
:10161C00536823F0E06343F08063536003B05DF8DC
:10162C0004FB00BF0010024000000140704700BFE7
:10163C00FEE700BFFEE700BFFEE700BFFEE700BF0E
:10164C00704700BF704700BF704700BF08B5FEF77A
:10165C00C1FDBDE80840FFF71FBA00BF0148FFF706
:10166C009FB800BF7400002008B50648FFF798F833
:10167C004FF400510448FFF719FBBDE80840FFF791
:10168C0093BE00BF740000200010014030B44FF432
:10169C001F054FF000640E4B0E4A19680E4841F0BE
:1016AC000101196059680A405A601A6822F0847264
:1016BC0022F480321A601A6822F480221A605A6866
:1016CC0022F4FE025A609D60846030BC704700BFFB
:1016DC00001002400000FFF800ED00E0002103E0E4
:1016EC000B4B5B58435004310A480B4B42189A423F
:1016FC00F6D30A4A02E0002342F8043B084B9A4214
:10170C00F9D3FFF7C3FF00F00FF8FFF723FF704783
:10171C00DC170008000000200C0000200C0000204A
:10172C00C0000020FEE7000070B500250C4E0D4CEB
:10173C00A41BA410A54209D100F01AF800250A4EEA
:10174C000A4CA41BA410A54205D170BD56F8253037
:10175C0098470135EEE756F8253098470135F2E702
:10176C00D4170008D4170008D4170008D81700089D
:10177C00F8B500BFF8BC08BC9E467047F8B500BF72
:08178C00F8BC08BC9E46704742
:1017940002030405060708090A0B0C0D0E0F1010AE
:1017A4000001020304050607000000000000000019
:1017B40001020304060708090000000001020304F3
:1017C4002E2E2F5372632F63616E2E630000000070
:0417D40031010008D7
:0417D8000D010008F7
:0C17DC00010000001000000000A24A0400
:04000005080016E9F0
:00000001FF
