:020000040800F2
:1000000000500020251900089D1800089F180008BE
:10001000A1180008A3180008A51800080000000097
:10002000000000000000000000000000A718000809
:10003000A918000800000000AB180008AD1800085F
:100040006D1900086D1900086D1900086D19000878
:100050006D1900086D1900086D1900086D19000868
:100060006D1900086D1900086D1900086D19000858
:100070006D1900086D1900086D1900086D19000848
:100080006D1900086D1900086D190008B9180008ED
:10009000C91800086D1900086D1900086D190008CD
:1000A0006D1900086D1900086D1900086D19000818
:1000B0006D1900086D1900086D1900086D19000808
:1000C0006D1900086D1900086D1900086D190008F8
:1000D0006D1900086D1900086D1900086D190008E8
:1000E0006D1900086D1900086D1900080000000066
:1000F0000000000000000000000000000000000000
:0C01000000000000000000005FF808F1A3
:10010C0010B5054C237833B9044B13B10448AFF345
:10011C0000800123237010BD0C00002000000000A3
:10012C00B81900080C4B43B10C4810B50C49AFF38F
:10013C0000800C48036823B910BD0A48036833B922
:10014C007047094B002BF7D0BDE810401847064B01
:10015C00002BF5D0184700BF00000000B8190008AC
:10016C00100000200C0000200000000010B5044618
:10017C000E4B18784FF47A73B3FBF0F30C4A1068FB
:10018C00B0FBF3F000F0EEFC68B90F2C01D90120A4
:10019C0010BD002221464FF0FF3000F0A5FC034BB0
:1001AC005C60002010BD012010BD00BF00000020CD
:1001BC000800002008B5074A136843F010031360C9
:1001CC00032000F07FFC0020FFF7D0FF01F010FBB4
:1001DC00002008BD00200240034A1168034B1B7825
:1001EC000B441360704700BF680000200000002023
:1001FC00014B1868704700BF6800002038B50446F2
:10020C00FFF7F6FF0546B4F1FF3F02D0044B1B7815
:10021C001C44FFF7EDFF401B8442FAD838BD00BFE9
:10022C0000000020F0B44B6901229A400468D4F815
:10023C00003223F47C534D6A43EA052343F0010357
:10024C00C4F800320568D5F81C42D3431C40C5F8ED
:10025C001C42CC69C4B90568D5F80C421C40C5F8E1
:10026C000C4206684C69CF688D8845EA07454834CE
:10027C0046F8345004684E698F680D8845EA074586
:10028C00483604EBC6046560CC69012C1ED08C6921
:10029C00002C35D10568D5F804421C40C5F8044241
:1002AC000C69002C33D10468D4F814522B40C4F8D8
:1002BC0014320B6A012B31D00268D2F8003223F0D1
:1002CC000103C2F800320020F0BC70470568D5F875
:1002DC000C421443C5F80C4206684C690F688D88B3
:1002EC0045EA0745483446F8345004684E698F682F
:1002FC008D8945EA0745483604EBC6046560C6E7B8
:10030C000568D5F804421443C5F80442C8E70468EC
:10031C00D4F814321343C4F81432CAE70368D3F880
:10032C001C120A43C3F81C22C6E7002800F09C806C
:10033C0038B5044690F83C3003B3022384F83C30C3
:10034C002268136823F0020313602268136843F0D9
:10035C0001031360FFF74CFF054623685A6812F03F
:10036C00010F10D1FFF744FF401B0A28F5D90320D9
:10037C0084F83C00002384F83D3038BD80F83D30D3
:10038C0001F03AF8D9E75A6812F0010F5DD0A26972
:10039C00012A43D00022E169012941D022F0400218
:1003AC00216A01293FD022F02002616A01293DD047
:1003BC0022F01002A16A01293BD022F00802E16A66
:1003CC00012939D022F00402196821F0FC010A43FA
:1003DC001A602168A368E2681343226913436269B7
:1003EC0013436268013A1343CB612268136823F00C
:1003FC0001031360FFF7FCFE054623685A6812F0F0
:10040C00010F1CD0FFF7F4FE401B0A28F5D903207E
:10041C0084F83C00002384F83D3038BD8022BAE7D4
:10042C0042F04002BCE742F02002BEE742F010026C
:10043C00C0E742F00802C2E742F00402C4E75B687E
:10044C0013F0010F08D0002300E0002333B904237C
:10045C0084F83C30012038BD0123F7E700202064EC
:10046C00012384F83C3038BD012070470268936842
:10047C0013F0806F08D1936813F0006F04D1936868
:10048C0013F0805F00F09A8090F83D30012B00F063
:10049C009A80F0B4012380F83D30936813F0806F9C
:1004AC0005D1936813F0006F59D0012300E00023AD
:1004BC0003F118010901545804F001045450016B64
:1004CC008A68002A4DD1056803F118021201AC5854
:1004DC000E68C96841EA46512143A950016B0A696B
:1004EC0002F00F020A61046803F11802110162188C
:1004FC00546824F00F04546002680A445168046B79
:10050C002469214351600468016BCD7D8A7D1204FE
:10051C0042EA05624D7D42EA0522097D0A431D012E
:10052C002C44C4F888210168046BE67EA27E120478
:10053C0042EA0662667E42EA0622247E224329446F
:10054C00C1F88C2190F83C20D2B2322A2ED0622AEB
:10055C0030D0222A12D0122280F83C2011E0022343
:10056C00A6E7066803F11804240135594F6842EADE
:10057C00C702C9680A432A433251AFE7422280F8C6
:10058C003C200022026480F83D20046818331B01D3
:10059C00E15841F00101E15001684B6943F40F430C
:1005AC0043F001034B611046F0BC7047522280F8B7
:1005BC003C20E6E7722280F83C20E2E7042380F836
:1005CC003C3001207047022070470B4699B990F8D7
:1005DC003C20D2B2222A7CD090F83C20D2B2422AC3
:1005EC0079D090F83C20D2B2622A76D090F83C2098
:1005FC00D2B2722A73D0012B16D090F83D20012A6A
:10060C0075D010B4012280F83D20002B41D190F818
:10061C003C20D2B2322A34D0522A36D0122A19D0E7
:10062C00222280F83C2018E090F83C20D2B2322AEA
:10063C0057D090F83C20D2B2522A54D090F83C209B
:10064C00D2B2622A51D090F83C20D2B2722AD4D1C4
:10065C0002207047422280F83C200021016404688B
:10066C00626942F40F4242F00102626180F83D106F
:10067C0043B30268536943F050035361002010BC2C
:10068C007047622280F83C20E7E7722280F83C2019
:10069C00E3E790F83C20D2B2222A0BD0422A0DD0AC
:1006AC00122A03D0322280F83C20D6E7522280F85E
:1006BC003C20D2E7622280F83C20CEE7722280F800
:1006CC003C20CAE70268536943F00A0353610846A9
:1006DC00D5E70220704702207047022070470220A5
:1006EC00704702207047022070470220704702209A
:1006FC007047704708B50268536923F001035361D2
:10070C0090F83C30DBB2122B0CD090F83C30DBB2C2
:10071C00522B14D0722B16D0422B09D0012380F807
:10072C003C3008E00268536923F40F435361ECE753
:10073C00222380F83C30FFF7DCFF002008BD322379
:10074C0080F83C30F7E7622380F83C30F3E77047E1
:10075C0010B50C46002974D1436B016804F11B02DF
:10076C0012018A5802F004029A60002A6BD10168C7
:10077C0004F11B0212018A58520D1A60016804F12F
:10078C001B021201895801F00201D9600168114461
:10079C00496801F00F0119611C6201680A44526832
:1007AC00C2F30722DA61016822011144D1F8B811B1
:1007BC00197501681144D1F8B811090A5975016805
:1007CC001144D1F8B811090C997501681144D1F88C
:1007DC00B811090ED97501681144D1F8BC111976FC
:1007EC0001681144D1F8BC11090A59760168114409
:1007FC00D1F8BC11090C997601680A44D2F8BC21D5
:10080C00120EDA763CBB03682022DA600268536968
:10081C0023F00A03536190F83C30DBB2222B23D037
:10082C00322B21D0002C34D190F83C30DBB2622B2F
:10083C0027D0722B29D0422B1CD0012380F83C30BE
:10084C001BE0836B89E7016804F11B0212018A58D3
:10085C00D2085A6092E7036820221A610268536931
:10086C0023F050035361D6E70268536923F40F4316
:10087C005361D7E7122380F83C30FFF768FF002064
:10088C0010BD322380F83C30F7E7522380F83C301F
:10089C00F3E790F83C30DBB2622B0BD0722B0DD00F
:1008AC00522B03D0012380F83C30E6E7122380F86A
:1008BC003C30E2E7222380F83C30DEE7422380F82C
:1008CC003C30DAE77047000070B504460268D16826
:1008DC00536911F0100F09D003F00803002B00F03E
:1008EC00A6801023D3604FF4007500E00025226829
:1008FC001169536903F0400311F0100F04D01BB1C0
:10090C0045F480651023136123685A6912F0010FB6
:10091C0028D09E689968674A0A40996821F06F410F
:10092C0021F47E01090C09046348B04305D06148E9
:10093C00824202D0614A914214D199689A6802F4B9
:10094C0000729B6803F0010311F0020F02D10AB987
:10095C00002B6ED02046FFF7CDFE22689168584BD5
:10096C000B4393602368DA685B6903F0020312F0AF
:10097C00030F01D0002B5FD123681A695B6903F068
:10098C00100312F0030F01D0002B5AD1236C1D431E
:10099C002564236898695A6902F48072596901F4D4
:1009AC00004110F0010F05D022B119B1226C42F0B8
:1009BC000102226498695A6902F40072596901F4BF
:1009CC00004110F0020F05D022B119B1226C42F097
:1009DC000202226498695A6902F48062596901F42E
:1009EC00004110F0040F05D022B119B1226C42F075
:1009FC000402226498695A6902F40062596901F48C
:100A0C00004110F0700F32D08AB381B39A6902F0B2
:100A1C007002302A2ED019D9502A30D0602A33D007
:100A2C00402A20D1226C42F0400222641BE00025B7
:100A3C005DE745F4006590E700212046FFF788FE4E
:100A4C009AE701212046FFF783FE9FE7102A06D084
:100A5C00202A08D1226C42F01002226403E0226C9E
:100A6C0042F0080222649A6922F070029A61236CA7
:100A7C007BB970BD226C42F020022264F3E7226C39
:100A8C0042F080022264EEE7226C42F4807222640F
:100A9C00E9E7236804225A60012384F83C30226879
:100AAC00536923F40F4323F05B0353612046FFF794
:100ABC0009FFDEE70001000801000004000001103E
:100ACC0009050100074AD36823F4E0631B041B0CDF
:100ADC00000200F4E060184340F0BF6040F40030C6
:100AEC00D060704700ED00E030B4164BDB68C3F308
:100AFC000223C3F10704042C28BF04241D1D062D5A
:100B0C0017D9033B012505FA04F4013C2140994017
:100B1C0005FA03F3013B1340194300280BDB0901D1
:100B2C00C9B200F1604000F5614080F8001330BCA0
:100B3C0070470023E6E700F00F000901C9B2024B31
:100B4C001954F4E700ED00E014ED00E0420900F068
:100B5C001F00012303FA00F0014B43F822007047F9
:100B6C0000E100E00138B0F1807F0AD2064B5860FA
:100B7C00F021064A82F823100020986007221A60A0
:100B8C0070470120704700BF10E000E000ED00E06E
:100B9C00042805D0054A136823F00403136070473A
:100BAC00024A136843F004031360704710E000E03E
:100BBC00704708B5FFF7FCFF08BD0000F0B583B027
:100BCC000026344671E0002D00F0A180012D00D1EB
:100BDC00CE68FF2B00F2AF808646FF2B00F2AE8072
:100BEC00A500DEF800200F27AF4022EA070206FA24
:100BFC0005F52A43CEF800204A6812F0805F53D0E6
:100C0C00634A956945F001059561926902F001020C
:100C1C000192019AA508AF1C5E4A52F8272004F0F5
:100C2C000307BF004FF00F0E0EFA07FE22EA0E026A
:100C3C00DFF870E1704500F088800EF5806E70452D
:100C4C0000F086800EF5806E704500F084800EF505
:100C5C00806E704576D04FF0040E0EFA07F73A43CB
:100C6C0002354C4F47F825204A6812F4803F75D066
:100C7C00494D2A681A432A604A6812F4003F73D01F
:100C8C00454D6A681A436A604A6812F4801F71D035
:100C9C00414DAA681A43AA604A6812F4001F6FD02B
:100CAC003D4DEA681343EB6001340F2C6ED80122E2
:100CBC00A2400B6813409A42F6D14D68122D30D0E9
:100CCC000BD8022D2AD07FF67EAF032D2FD0112DFD
:100CDC007FF47FAFCE6804367BE7304FBD4216D031
:100CEC000CD92F4FBD4212D007F58037BD420ED024
:100CFC00A7F58017BD427FF46CAF08E0A7F580170D
:100D0C00BD4204D007F58037BD427FF462AF8D68D9
:100D1C007DB1012D08D0426108265AE7CE6808360D
:100D2C0057E7CE680C3654E70261082651E70026D7
:100D3C004FE704264DE700F1040E4EE7A4F1080539
:100D4C00AD004EE74FF0030E87E74FF0000E84E73F
:100D5C004FF0010E81E74FF0020E7EE70E4D2A6830
:100D6C0022EA03022A6087E70B4D6A6822EA030233
:100D7C006A6089E7084DAA6822EA0302AA608BE739
:100D8C00054DEA6822EA0303EB608DE703B0F0BD82
:100D9C00001002400000014000040140000021103E
:100DAC00000031100008014012B9090401617047BC
:100DBC000161704782B0084B1B68084AA2FB0323F1
:100DCC005B0A00FB03F0019000BF019B5A1E0192CD
:100DDC00002BF9D102B0704708000020D34D6210EF
:100DEC0070B582B00446036813F0010F3DD0AC4BD4
:100DFC005B6803F00C03042B2ED0A94B5B6803F04B
:100E0C000C03082B23D06368B3F5803F51D0002B23
:100E1C0055D103F1804303F504331A6822F4803270
:100E2C001A601A6822F480221A606368002B60D062
:100E3C00FFF7DEF905469A4B1B6813F4003F14D1FB
:100E4C00FFF7D6F9401B6428F5D90320AFE1944B8A
:100E5C005B6813F4803FD6D0914B1B6813F4003FB2
:100E6C0003D06368002B00F09F81236813F0020FFE
:100E7C0065D08B4B5B6813F00C0F4ED0884B5B68C6
:100E8C0003F00C03082B43D02369002B79D00122EB
:100E9C00844B1A60FFF7ACF90546814B1B6813F0C5
:100EAC00020F65D1FFF7A4F9401B0228F5D90320E6
:100EBC007DE17B4A136843F480331360B5E7B3F5E7
:100ECC00A02F09D0764B1A6822F480321A601A6867
:100EDC0022F480221A60A8E703F18043A3F53C3387
:100EEC001A6842F480221A601A6842F480321A603E
:100EFC009BE7FFF77DF90546694B1B6813F4003F30
:100F0C00B3D0FFF775F9401B6428F5D903204EE1E7
:100F1C00634B5B6813F4803FB6D1614B1B6813F0D5
:100F2C00020F04D02369012B01D001203FE15C4A60
:100F3C00136823F0F803616943EAC1031360236863
:100F4C0013F0080F32D0A369002B6ED00122564B40
:100F5C001A60FFF74DF90546514B5B6A13F0020F0F
:100F6C0021D1FFF745F9401B0228F5D903201EE1DA
:100F7C004B4A136823F0F803616943EAC103136019
:100F8C00DDE70022474B1A60FFF732F90546444B68
:100F9C001B6813F0020FD2D0FFF72AF9401B02286E
:100FAC00F5D9032003E10120FFF704FF236813F0B8
:100FBC00040F00F099803A4BDB6913F0805F46D147
:100FCC00374BDA6942F08052DA61DB6903F0805307
:100FDC000193019B0125354B1B6813F4807F38D09E
:100FEC00E368012B49D0002B4DD103F1804303F56D
:100FFC0004331A6A22F001021A621A6A22F00402FD
:10100C001A62E368002B5DD0FFF7F2F80646244B1A
:10101C001B6A13F0020F66D1FFF7EAF8801B41F24E
:10102C0088339842F3D90320C1E000221E4B1A608A
:10103C00FFF7DEF805461A4B5B6A13F0020FB5D0CA
:10104C00FFF7D6F8401B0228F5D90320AFE00025A6
:10105C00C1E7164A136843F480731360FFF7C8F8AE
:10106C000646124B1B6813F4807FB9D1FFF7C0F80A
:10107C00801B6428F5D9032099E0094A136A43F0D0
:10108C0001031362BDE7052B12D0054B1A6A22F03F
:10109C0001021A621A6A22F004021A62B1E700BF56
:1010AC0000100240000042428004424200700040A6
:1010BC00414B1A6A42F004021A621A6A42F00102A7
:1010CC001A629EE7FFF794F806463B4B1B6A13F037
:1010DC00020F08D0FFF78CF8801B41F2883398423E
:1010EC00F3D9032063E0E5B9E369002B5ED0324A03
:1010FC00526802F00C02082A5BD0022B17D0002297
:10110C002E4B1A60FFF774F804462B4B1B6813F038
:10111C00007F47D0FFF76CF8001B0228F5D903209D
:10112C0045E0254AD36923F08053D361DCE70022E4
:10113C00224B1A60FFF75CF805461F4B1B6813F037
:10114C00007F06D0FFF754F8401B0228F5D9032086
:10115C002DE0236AB3F5803F1AD017494B6823F46E
:10116C007413226A606A024313434B600122134BCF
:10117C001A60FFF73DF804460F4B1B6813F0007F15
:10118C000ED1FFF735F8001B0228F5D903200EE02D
:10119C00094A536823F40033A1680B435360DCE71E
:1011AC00002004E0002002E0012000E0002002B05A
:1011BC0070BD0120FBE700BF0010024060004242FE
:1011CC0010B586B0154C94E80F000DF1180E0EE911
:1011DC000F00238AADF80430114B5B6803F00C024E
:1011EC00082A18D1C3F38342724412F8102C13F45A
:1011FC00803F03D10B4800FB02F00DE0084B5B680D
:10120C00C3F34043734413F8143C074800FB02F04B
:10121C00B0FBF3F000E0044806B010BDD019000894
:10122C000010024000093D0000127A00594B1B6867
:10123C0003F007038B420CD2564A136823F00703C2
:10124C000B431360136803F00703994201D001208C
:10125C00704770B5036813F0020F06D04E4A5368FE
:10126C0023F0F0038468234353600D46044603685F
:10127C0013F0010F52D04368012B23D0022B28D03E
:10128C00454A126812F0020F00F0828042494A6807
:10129C0022F0030213434B60FEF7AAFF0646636875
:1012AC00012B1DD0022B2AD03B4B5B6813F00C0F8B
:1012BC0034D0FEF79DFF801B41F288339842F3D95E
:1012CC00032070BD344A126812F4003FDED10120B5
:1012DC0070BD314A126812F0007FD7D1012070BD69
:1012EC002D4B5B6803F00C03042B17D0FEF780FF2B
:1012FC00801B41F288339842F2D9032070BD264BF3
:10130C005B6803F00C03082B08D0FEF771FF801B01
:10131C0041F288339842F2D9032070BD1D4B1B68F3
:10132C0003F007039D420CD21A4A136823F00703FB
:10133C002B431360136803F007039D4201D0012077
:10134C0070BD236813F0040F06D0134A536823F4BE
:10135C00E063E1680B435360236813F0080F07D078
:10136C000D4A536823F46053216943EAC103536067
:10137C00FFF726FF084B5B68C3F30313074AD35CE4
:10138C00D840074B18600020FEF7F0FE002070BD1F
:10139C00012070BD0020024000100240F41900082A
:1013AC0008000020014B1868704700BF080000209F
:1013BC0008B50E480E4B036009234360002383607D
:1013CC00C3604FF4A0220261436183610122C261B8
:1013DC00036243628362C362FEF7A7FF00B908BDD4
:1013EC004921044800F02EF9F9E700BF74000020F1
:1013FC00006400400C1A000802681C4B9A4200D092
:10140C00704730B587B003F5D633DA6942F0007215
:10141C00DA61DB6903F000730193019B4FF4006305
:10142C000293002403940494114D02A92846FFF75B
:10143C00C5FB4FF4805302930223039303230593BC
:10144C0002A92846FFF7BAFB224621461320FFF7D4
:10145C004BFB1320FFF77AFB224621461420FFF7A3
:10146C0043FB1420FFF772FB07B030BD0064004053
:10147C000008014000B58BB00023059306930122B0
:10148C0007920093019302930393049308920E2303
:10149C00099369460548FEF7C5FE10B90BB05DF817
:1014AC0004FBA021024800F0CDF8F7E774000020FF
:1014BC000C1A000808B500210448FFF786F800B99B
:1014CC0008BDBD21024800F0BDF8F9E7740000200A
:1014DC000C1A000810B5274B1B6B1960002304E095
:1014EC00C15C1A4411750133DBB2224A126B1169CB
:1014FC008B42F5D31F48FEF7B9FF00B910BD1E4C47
:10150C0000224FF480412046FFF74EFC4FF49670BA
:10151C00FEF774FE01224FF400512046FFF744FC05
:10152C004FF49670FEF76AFE00224FF400512046ED
:10153C00FFF73AFC4FF49670FEF760FE01224FF471
:10154C0000512046FFF730FC4FF49670FEF756FE24
:10155C0000224FF400512046FFF726FC4FF4967002
:10156C00FEF74CFE01224FF480412046FFF71CFC95
:10157C00C4E700BF740000200010014040F221338A
:10158C0003600023436083600361C36104E0C218FD
:10159C00002111750133DBB2072BF8D9704700001D
:1015AC0010B50A4C2046FFF7E9FF094B04F1240261
:1015BC001A635C634FF4407363620123A3620023DC
:1015CC002363E3620823636310BD00BF280000207F
:1015DC007400002010B588B0184B9A6942F01002C4
:1015EC009A619A6902F010020192019A9A6942F08A
:1015FC0020029A619A6902F020020292029A9A6978
:10160C0042F004029A619B6903F004030393039B69
:10161C000B4C00224FF400512046FFF7C5FB4FF452
:10162C00005304930123059300230693022307938D
:10163C0004A92046FFF7C2FA08B010BD0010024002
:10164C0000100140FEE7000000B591B001220692A7
:10165C004FF480330793002108910A9202220D92D5
:10166C000E934FF4E0130F9306A8FFF7B9FB08BBDA
:10167C000F23019302210291002303934FF4806204
:10168C000492059301A8FFF7D1FDB8B9FFF78AFEC4
:10169C000C4BA3FB00308009FFF764FA0420FFF722
:1016AC0077FA002211464FF0FF30FFF71DFA11B008
:1016BC005DF804FBAA210448FFF7C4FFB8210248D7
:1016CC00FFF7C0FFD34D62101C1A000800B593B091
:1016DC00FEF770FDFFF7B8FFFFF77CFFFFF768FE22
:1016EC00FFF7C8FEFFF75CFFFFF7E4FE3F4B93E804
:1016FC00030012AA02E903000EAC03F1080292E8FF
:10170C00030084E803000CAC93E8030084E80300B6
:10171C000AAC92E8030084E8030008AC93E80300E9
:10172C0084E8030006AC92E8030084E8030004ACF0
:10173C0093E8030084E8030002AC92E8030084E819
:10174C00030093E803008DE803004FF4807110A8A8
:10175C00FFF7C0FE3220FEF751FD4FF4A8710EA822
:10176C00FFF7B8FE3220FEF749FD4FF400710CA8CC
:10177C00FFF7B0FE3220FEF741FD4FF414710AA8BA
:10178C00FFF7A8FE3220FEF739FD4FF4407108A890
:10179C00FFF7A0FE3220FEF731FD4FF4547106A87E
:1017AC00FFF798FE3220FEF729FD4FF4806104A864
:1017BC00FFF790FE3220FEF721FD4FF48A6102A85C
:1017CC00FFF788FE3220FEF719FD4FF4A061684642
:1017DC00FFF780FE3220FEF711FD4FF4AA610EA830
:1017EC00FFF778FE3220FEF709FDAEE7E41900089A
:1017FC0000B583B0244B9A6942F001029A619A6950
:10180C0002F001020092009ADA6942F08052DA6129
:10181C00DB6903F080530193019B0320FFF752F91E
:10182C00002211466FF00B00FFF75EF90022114603
:10183C006FF00A00FFF758F9002211466FF009000B
:10184C00FFF752F9002211466FF00400FFF74CF934
:10185C00002211466FF00300FFF746F900221146F3
:10186C006FF00100FFF740F9002211464FF0FF30F6
:10187C00FFF73AF9054A536823F0E06343F08063BD
:10188C00536003B05DF804FB0010024000000140FF
:10189C007047FEE7FEE7FEE7FEE7704770477047CC
:1018AC0008B5FEF799FCFFF784F908BD08B50248A6
:1018BC00FFF70AF808BD00BF7400002008B5024805
:1018CC00FFF702F808BD00BF740000200F4B1A6828
:1018DC0042F001021A6059680D4A0A405A601A68AF
:1018EC0022F0847222F480321A601A6822F4802268
:1018FC001A605A6822F4FE025A604FF41F029A6072
:10190C004FF00062034B9A60704700BF001002401A
:10191C000000FFF800ED00E0002103E00B4B5B58EA
:10192C00435004310A480B4B42189A42F6D30A4AE8
:10193C0002E0002342F8043B084B9A42F9D3FFF72C
:10194C00C5FF00F00FF8FFF7C1FE7047341A00080E
:10195C00000000200C0000200C000020C000002023
:10196C00FEE7000070B500250C4E0D4CA41BA41016
:10197C00A54209D100F01AF800250A4E0A4CA41B06
:10198C00A410A54205D170BD56F8253098470135F5
:10199C00EEE756F8253098470135F2E72C1A000887
:1019AC002C1A00082C1A0008301A0008F8B500BFD1
:1019BC00F8BC08BC9E467047F8B500BFF8BC08BC24
:0419CC009E4670477C
:1019D00002030405060708090A0B0C0D0E0F101070
:1019E00001020000000102030405060707060504C2
:1019F00003020100000000000000000001020304D7
:101A00000607080900000000010203042E2E2F53D0
:101A100072632F63616E2E63000000002E2E2F5321
:0C1A200072632F6D61696E2E6300000080
:041A2C00310100087C
:041A30000D0100089C
:0C1A3400010000001000000000A24A04A5
:0400000508001925B1
:00000001FF
